:040000008031222801
:100008007E14803120007F08F7000B1F1D28210077
:10001800111D15282000111D152890310020803150
:100028001D282100911D1D282000911D1D289E318D
:10003800AB2677082000FF007E10090080312428B5
:10004800F830840093308500E8308600233087003C
:100058000430FF000830A531A12580310D3084001F
:10006800A63085005D308600013087000030FF0033
:100078001330A531A125803136308400A6308500A3
:10008800A0308600013087000030FF001A30A5310B
:10009800A1258031F801F901FA01FB01FC01FD01FC
:1000A800EE01EF01E3308400003085000D30FE00E2
:1000B8000030FF00A53195258031203084000130C3
:1000C80085002830FE000030FF00A53195257E1000
:1000D800200080316F28A531BA2580318B170B1786
:1000E800A7312F27803199317D2180319931D8214D
:1000F800803128302000B6000030B7002830B80022
:100108000030B9000130BA000030BB0098319520AA
:1001180080319931D821803115302100DE004B30F3
:10012800DD00BE30890B9628DD0B9628DE0B96285D
:10013800000099317D2180319931D8218031220008
:10014800DB01DC01DB01DC01A531742580312200F3
:100158005C08803A2100DD0020002108803A210057
:100168005D02031DBB282000200822005B02031843
:10017800E62800302000D500D6000030D700D8008F
:1001880022005C082000DA0022005B082000D90069
:10019800A5316B25803120002008FF3EDB00FF30B1
:1001A800213DDC000130DD000030DE009031E82028
:1001B80080319931D821803104302200DB070030AA
:1001C800DC3DA8282200DB01DC01A5316B2580314C
:1001D80022005C08803A2100DD0020002108803AD6
:1001E80021005D02031DFC282000200822005B027C
:1001F8000318272900302000D500D6000030D7008A
:10020800D800A5317425803120002008FF3ED90090
:10021800FF30213DDA0022005C082000DC002200CB
:100228005B082000DB000130DD000030DE0090318B
:10023800E82080319931D821803104302200DB0751
:100248000030DC3DE9283D302100DE00E130DD00F2
:100258003F30890B2D29DD0B2D29DE0B2D2900328E
:1002680099317D2180319931D82180310130A631F1
:100278002026803101302000A0000030A100A531E7
:10028800AD25803100302000A000A1000030A20080
:10029800A300A531E92580312200DB01DC015C08DF
:1002A800803A2100DD0080305D02031D5E29A83000
:1002B80022005B0203187C290A3022005B065C04DA
:1002C80003196A295B089B316223803101302200BF
:1002D800DB070030DC3D5C08803A2100DD0080301F
:1002E8005D02031D7A29A83022005B02031C6029E5
:1002F8009931D82180313D302100DE00E130DD0028
:100308003F30890B8529DD0B8529DE0B85290032D5
:1003180099317D2180319931D821803100302000F8
:10032800A000A1000030A200A300A531E92580317A
:100338000230A6312026803138309B31622380314B
:100348000330A6312026803138309B31622380313A
:100358000430A6312026803138309B316223803129
:100368009931D82180313D302100DE00E130DD00B7
:100378003F30890BBD29DD0BBD29DE0BBD290032BD
:1003880099317D2180319931D82180310130A631D0
:100398002026803101302000A0000030A100A531C6
:1003A800AD25803100302000A000A1000030A2005F
:1003B800A300A531E92580312F302100DB00A830CA
:1003C800DC00A531892580313F302100DB00A830D1
:1003D800DC00A531892580319931D82180313D3023
:1003E8002100DE00E130DD003F30890BF929DD0B0B
:1003F800F929DE0BF929003299317D2180319931B3
:10040800D82180310130A6312026803101302000EA
:10041800A0000030A100A531AD25803100302000BA
:10042800A000A1000030A200A300A531E925803179
:1004380001302200DB000030DC005C08803A21003B
:10044800DD0080305D02031D2C2A103022005B0283
:100458000318482A55302100DB00A830DC00A531FC
:100468008925803101302200DB070030DC3D5C0843
:10047800803A2100DD0080305D02031D462A1030DD
:1004880022005B02031C2E2A9931D82180310730C3
:100498002100DD005D082000B80026302100DE00C4
:1004A8005E082000B90007302100DF005F08200047
:1004B800BA000030A731A627803129302100DE009C
:1004C8009630DD007F30890B672ADD0B672ADE0B4B
:1004D800672AA531FA25803104302100DD005D0846
:1004E8002000B8002A302100DE005E082000B90094
:1004F80006302100DF005F082000BA000230A73173
:10050800A627803129302100DE009630DD007F30BB
:10051800890B8C2ADD0B8C2ADE0B8C2AA531FA2557
:1005280080313D302100DE00E130DD003F30890BB5
:100538009B2ADD0B9B2ADE0B9B2A003299317D21F9
:1005480080319931D82180312200DB01DC01023071
:100558002000A2000030A300A5316B2580312000C7
:100568002108A5002008A4009831D4208031220059
:100578005C08803A2100DD0020002308803A210031
:100588005D02031DCB2A2000220822005B0203180B
:10059800272B22005C082100AD0022005B08210007
:1005A800AC0022005C082100AF0022005B0821009B
:1005B800AE0022005C082100DE0022005B0821005A
:1005C800DD00DD35DE0DDD09DE09DD0A0319DE0A91
:1005D800A5317425803121005D0820002007210005
:1005E800B0005E082000213D2100B10022005C0817
:1005F8002100E00022005B082100DF00DF35E00D6C
:10060800DF09E009DF0A0319E00AA5316B2580310B
:1006180021005F08200020072100B20060082000A8
:10062800213D2100B3000130B4000030B5009C31F9
:10063800C52480319931D821803102302200DB076E
:100648000030DC3DAB2A3D302100DE00E130DD002A
:100658003F30890B2D2BDD0B2D2BDE0B2D2B003284
:1006680099317D2180319931D82180312200CC0106
:10067800CC0ADB01DC0102302000A2000030A3001C
:10068800A5316B25803120002108A5002008A40091
:100698009831D420803122005C08803A2100DD00A6
:1006A80020002308803A21005D02031D5F2B2000F3
:1006B800220822005B020318C62B22005C082100D6
:1006C800AD0022005B082100AC0022005C0821007C
:1006D800AF0022005B082100AE0022005C08210068
:1006E800DE0022005B082100DD00DD35DE0DDD09BE
:1006F800DE09DD0A0319DE0AA531742580312100DF
:100708005D08200020072100B0005E082000213D80
:100718002100B10022005C082100E00022005B08F3
:100728002100DF00DF35E00DDF09E009DF0A0319EA
:10073800E00AA5316B25803121005F0820002007E1
:100748002100B20060082000213D2100B3002200F2
:100758004C0801392100E100E2016108B400620897
:10076800B5009C31122480319931D8218031013073
:100778002100DD005D082200CC070330DB070030D4
:10078800DC3D3F2B3D302100DE00E130DD003F3015
:10079800890BCC2BDD0BCC2BDE0BCC2B003299310B
:1007A8007D2180319931D82180312200DB01DC01A3
:1007B800A5316B25803122005C08803A2100DD00DC
:1007C80020002108803A21005D02031DEF2B200044
:1007D800200822005B020318322C02302000A200FD
:1007E8000030A300A5317425803120002108A50020
:1007F8002008A4009831D420803120002308BE00AE
:100808002208BD000230A2000030A300A5316B25EC
:10081800803120002108A5002008A4009831D420A8
:10082800803120002308C0002208BF0022005C0895
:100838002000C20022005B082000C1000130C30074
:100848000030C4008C31C92480319931D8218031DD
:1008580002302200DB070030DC3DDC2B3D3021007C
:10086800DE00E130DD003F30890B382CDD0B382C01
:10087800DE0B382C003299317D2180319931D82115
:1008880080312200DB01DC013C2D02302000A20077
:100898000030A300A5317425803120002108A5006F
:1008A8002008A4009831D420803120002308220099
:1008B800CE00200022082200CD005B092100DD00C7
:1008C80022005C092100DE00DD0A0319DE0A02307D
:1008D8002000A2000030A300A5316B258031200044
:1008E8002108A5002008A4009831D42080312100D7
:1008F8005D08200022072200CF0021005E082000AA
:10090800233D2200D0005B092100DD0022005C09A4
:100918002100DE00DD0A0319DE0A02302000A200F1
:100928000030A300A5317425803120002108A500DE
:100938002008A4009831D420803121005D082000CF
:1009480022072200D10021005E082000233D22005A
:10095800D20002302000A2000030A300A5316B2590
:10096800803120002108A5002008A4009831D42057
:10097800803122005B08200022072200D3005C0897
:100988002000233D2200D40002302000A2000030C5
:10099800A300A5317425803120002108A500200876
:1009A800A4009831D420803122005B08200022075F
:1009B8002200D5005C082000233D2200D60002302A
:1009C8002000A2000030A300A5316B258031200053
:1009D8002108A5002008A4009831D42080312200E5
:1009E8005B08200022072200D7005C082000233D76
:1009F8002200D8004E082100AD0022004D08210039
:100A0800AC00220050082100AF0022004F0821004E
:100A1800AE00220052082100B10022005108210036
:100A2800B000220054082100B3002200530821001E
:100A3800B200220056082100B50022005508210006
:100A4800B400220058082100B700220057082100EE
:100A5800B6000130B8000030B9009A314222803126
:100A68009931D821803105302200DB070030DC3D88
:100A7800A53174258031200020082100DD002000E8
:100A880021082100DE00A5316B25803121005E0898
:100A9800803ADF0020002108803A21005F02031D10
:100AA800592D2000200821005D02031C652DA53169
:100AB8006B258031200021082200C9002000200871
:100AC8006E2DA53174258031200021082200C9002F
:100AD800200020082200C80002302000A2000030B8
:100AE800A300220049082000A50022004808200091
:100AF800A4009831D420803122005C08803A21007B
:100B0800DD0020002308803A21005D02031D902D9E
:100B18002000220822005B02031C492C3D302100E2
:100B2800DE00E130DD003F30890B982DDD0B982D7C
:100B3800DE0B982D003299317D2180319931D821F1
:100B480080312200D901DA01D901DA015A08803A44
:100B58002100DD0080305D02031DB52D0430220028
:100B680059020318272F2200590898316220803132
:100B78002200DB01DC01BF2E02302000A200003081
:100B8800A300A5317425803120002108A500200884
:100B9800A4009831D4208031200023082200CE0000
:100BA800200022082200CD005B092100DD00220080
:100BB8005C092100DE00DD0A0319DE0A023020008C
:100BC800A2000030A300A5316B2580312000210848
:100BD800A5002008A4009831D420803121005D08A8
:100BE800200022072200CF0021005E082000233DBC
:100BF8002200D0005B092100DD0022005C092100F1
:100C0800DE00DD0A0319DE0A02302000A2000030EF
:100C1800A300A5317425803120002108A5002008F3
:100C2800A4009831D420803121005D0820002207DB
:100C38002200D10021005E082000233D2200D200BE
:100C480002302000A2000030A300A5316B258031BE
:100C580020002108A5002008A4009831D420803164
:100C680022005B08200022072200D3005C08200035
:100C7800233D2200D40002302000A2000030A3004F
:100C8800A5317425803120002108A5002008A40082
:100C98009831D420803122005B08200022072200EE
:100CA800D5005C082000233D2200D6000230200039
:100CB800A2000030A300A5316B2580312000210857
:100CC800A5002008A4009831D420803122005B08B8
:100CD800200022072200D7005C082000233D2200C4
:100CE800D8004E082100AD0022004D082100AC00BC
:100CF800220050082100AF0022004F082100AE005A
:100D0800220052082100B100220051082100B00041
:100D1800220054082100B300220053082100B20029
:100D2800220056082100B500220055082100B40011
:100D3800220058082100B700220057082100B600F9
:100D48000130B8000030B9009A314222803199311F
:100D5800D821803105302100DE000F30DD00F13070
:100D6800890BB42EDD0BB42EDE0BB42E0530220019
:100D7800DB070030DC3DA5317425803120002008D8
:100D88002100DD00200021082100DE00A5316B25AF
:100D9800803121005E08803ADF0020002108803A77
:100DA80021005F02031DDC2E2000200821005D02C7
:100DB800031CE82EA5316B25803120002108220074
:100DC800CB0020002008F12EA531742580312000A9
:100DD80021082200CB00200020082200CA0002308F
:100DE8002000A2000030A30022004B082000A5002C
:100DF80022004A082000A4009831D4208031220023
:100E08005C08803A2100DD0020002308803A210098
:100E18005D02031D132F2000220822005B02031C21
:100E2800C02D01302200D9070030DA3D5A08803A37
:100E38002100DD0080305D02031D252F04302200D3
:100E48005902031CB72D3D302100DE00E130DD00E2
:100E58003F30890B2D2FDD0B2D2FDE0B2D2F003270
:100E68000130A631C426803115302100DE004B3018
:100E7800DD00BE30890B3E2FDD0B3E2FDE0B3E2FF3
:100E8800000000302200DB000130DC00DC1B602F9A
:100E98005B08A6318926803134302100DD00F1302D
:100EA800890B542FDD0B542F0032FF302200DB0753
:100EB800FF30DC3DDC1F4C2F0030A631C4268031CA
:100EC80015302100DE004B30DD00BE30890B6A2F63
:100ED800DD0B6A2FDE0B6A2F00002200DB01DC012C
:100EE8005C08803A2100DD0081305D02031D7F2F00
:100EF800003022005B020318A12F22005B08A631F4
:100F08008926803134302100DD00F130890B8A2FA9
:100F1800DD0B8A2F003201302200DB070030DC3D78
:100F28005C08803A2100DD0081305D02031D9F2F9F
:100F3800003022005B02031C812F3D302100DE00BF
:100F4800E130DD003F30890BA72FDD0BA72FDE0B2B
:100F5800A72F0032772800340034003400340034DE
:100F68003E345B344F345B343E343E346B344F3460
:100F78006B343E341C343E347C343E341C341834D8
:100F88003C347E343C3418341C3457347D34573464
:100F98001C341C345E347F345E341C340034183402
:100FA8003C3418340034FF34E734C334E734FF34B6
:100FB80000341834243418340034FF34E734DB3474
:100FC800E734FF34303448343A3406340E342634A7
:100FD800293479342934263440347F3405340534AF
:100FE800073440347F34053425343F345A343C3494
:100FF800E7343C345A347F343E341C341C340834CF
:1010080008341C341C343E347F34143422347F3486
:10101800223414345F345F3400345F345F34063470
:1010280009347F3401347F3400346634893495348C
:101038006A34603460346034603460349434A23488
:10104800FF34A2349434083404347E34043408342D
:10105800103420347E3420341034083408342A34D0
:101068001C34083408341C342A34083408341E3438
:1010780010341034103410340C341E340C341E3434
:101088000C34303438343E343834303406340E348A
:101098003E340E3406340034003400340034003456
:1010A800003400345F340034003400340734003432
:1010B8000734003414347F3414347F341434243423
:1010C8002A347F342A3412342334133408346434F1
:1010D80062343634493456342034503400340834B9
:1010E80007340334003400341C34223441340034CF
:1010F8000034413422341C3400342A341C347F3404
:101108001C342A34083408343E3408340834003493
:1011180080347034303400340834083408340834E7
:10112800083400340034603460340034203410341F
:101138000834043402343E345134493445343E349E
:10114800003442347F3440340034723449344934F2
:10115800493446342134413449344D343334183415
:10116800143412347F34103427344534453445342C
:1011780039343C344A3449344934313441342134E3
:10118800113409340734363449344934493436344F
:1011980046344934493429341E3400340034143474
:1011A8000034003400344034343400340034003423
:1011B80008341434223441341434143414341434B8
:1011C80014340034413422341434083402340134E1
:1011D8005934093406343E3441345D3459344E347C
:1011E8007C341234113412347C347F344934493419
:1011F800493436343E3441344134413422347F3426
:101208004134413441343E347F34493449344934DB
:1012180041347F3409340934093401343E344134CB
:101228004134513473347F340834083408347F34FB
:10123800003441347F344134003420344034413464
:101248003F3401347F3408341434223441347F3439
:1012580040344034403440347F3402341C34023447
:101268007F347F340434083410347F343E344134BE
:10127800413441343E347F34093409340934063466
:101288003E344134513421345E347F3409341934C6
:101298002934463426344934493449343234033401
:1012A80001347F34013403343F3440344034403413
:1012B8003F341F342034403420341F343F3440340A
:1012C800383440343F3463341434083414346334C9
:1012D80003340434783404340334613459344934DD
:1012E8004D34433400347F34413441344134023482
:1012F8000434083410342034003441344134413447
:101308007F34043402340134023404344034403429
:101318004034403440340034033407340834003453
:10132800203454345434783440347F3428344434AA
:101338004434383438344434443444342834383425
:101348004434443428347F34383454345434543492
:101358001834003408347E34093402341834A43480
:10136800A4349C3478347F34083404340434783416
:10137800003444347D344034003420344034403424
:101388003D3400347F34103428344434003400347D
:1013980041347F34403400347C34043478340434A9
:1013A80078347C340834043404347834383444349D
:1013B800443444343834FC34183424342434183451
:1013C8001834243424341834FC347C340834043479
:1013D80004340834483454345434543424340434ED
:1013E80004343F34443424343C34403440342034CE
:1013F8007C341C342034403420341C343C34403495
:10140800303440343C3444342834103428344434A0
:101418004C349034903490347C34443464345434B0
:101428004C34443400340834363441340034003405
:10143800003477340034003400344134363408340E
:101448000034023401340234043402343C34263487
:10145800233426343C341E34A134A134613412348C
:101468003A344034403420347A34383454345434A0
:10147800553459342134553455347934413422346F
:101488005434543478344234213455345434783410
:101498004034203454345534793440340C341E34B8
:1014A800523472341234393455345534553459342D
:1014B8003934543454345434593439345534543414
:1014C800543458340034003445347C3441340034C6
:1014D800023445347D3442340034013445347C349C
:1014E80040347D341234113412347D34F0342834CD
:1014F80025342834F0347C3454345534453400349D
:101508002034543454347C3454347C340A3409340C
:101518007F344934323449344934493432343A34E2
:101528004434443444343A3432344A344834483401
:1015380030343A344134413421347A343A34423400
:1015480040342034783400349D34A034A0347D34C1
:101558003D344234423442343D343D3440344034E6
:1015680040343D343C342434FF3424342434483467
:101578007E344934433466342B342F34FC342F34CE
:101588002B34FF3409342934F6342034C0348834F9
:101598007E34093403342034543454347934413497
:1015A8000034003444347D344134303448344834D1
:1015B8004A34323438344034403422347A340034B3
:1015C8007A340A340A3472347D340D34193431349F
:1015D8007D342634293429342F34283426342934C8
:1015E800293429342634303448344D3440342034B6
:1015F80038340834083408340834083408340834D3
:10160800083438342F341034C834AC34BA342F3456
:10161800103428343434FA34003400347B34003441
:101628000034083414342A34143422342234143460
:101638002A3414340834AA34003455340034AA3413
:10164800AA345534AA345534AA340034003400344A
:10165800FF340034103410341034FF3400341434A0
:1016680014341434FF34003410341034FF3400348C
:10167800FF3410341034F0341034F034143414348B
:101688001434FC34003414341434F7340034FF3484
:1016980000340034FF340034FF3414341434F43488
:1016A8000434FC3414341434173410341F34103414
:1016B80010341F3410341F341434143414341F34C9
:1016C8000034103410341034F03400340034003452
:1016D80000341F3410341034103410341F341034D4
:1016E800103410341034F034103400340034003422
:1016F800FF341034103410341034103410341034D3
:1017080010341034FF341034003400340034FF3403
:10171800143400340034FF340034FF34003400340F
:101728001F341034173400340034FC340434F434D7
:101738001434143417341034173414341434F4347F
:101748000434F43400340034FF340034F7341434EF
:10175800143414341434143414341434F734003472
:10176800F734143414341434173414341034103453
:101778001F3410341F34143414341434F43414342F
:1017880010341034F0341034F034003400341F3482
:1017980010341F340034003400341F34143400343F
:1017A80000340034FC34143400340034F034103481
:1017B800F03410341034FF341034FF34143414343B
:1017C8001434FF3414341034103410341F340034FB
:1017D800003400340034F0341034FF34FF34FF3464
:1017E800FF34FF34F034F034F034F034F034FF34A4
:1017F800FF34FF3400340034003400340034FF3444
:10180800FF340F340F340F340F340F34383444346A
:10181800443438344434FC344A344A344A34343452
:101828007E34023402340634063402347E34023400
:101838007E340234633455344934413463343834A3
:10184800443444343C34043440347E3420341E342C
:101858002034063402347E34023402349934A534F8
:10186800E734A53499341C342A3449342A341C34D6
:101878004C347234013472344C3430344A344D347C
:101888004D34303430344834783448343034BC340F
:1018980062345A3446343D343E3449344934493448
:1018A80000347E340134013401347E342A342A343D
:1018B8002A342A342A34443444345F344434443493
:1018C800403451344A3444344034403444344A3443
:1018D8005134403400340034FF3401340334E034EC
:1018E8008034FF3400340034083408346B346B34EB
:1018F80008343634123436342434363406340F344B
:1019080009340F34063400340034183418340034E1
:101918000034003410341034003430344034FF3490
:101928000134013400341F34013401341E340034CE
:1019380019341D341734123400343C343C343C34EC
:101948003C340034003400340034003420002108D2
:10195800A5002008A400240884002508850012009A
:101968000319BB2C0130A4070030A53DAF2C20097A
:10197800A2002109A300A20A0319A30A2408220726
:10198800A0002508233DA100080020004109C5004A
:101998004209C600C50A0319C60A4508013ECD001A
:1019A8000030463DCE000130C9000030CA00420870
:1019B800C6004108C500C535C60DC509C609C50A12
:1019C8000319C60A4508CB004608CC00CF01D00150
:1019D8004208D2004108D1003E08B7003D08B600D1
:1019E80041083F07B8004208403DB9004408BB0021
:1019F8004308BA00983195208C3120003E08B70082
:101A08003D08B6004109C5004209C600C50A0319C8
:101A1800C60A3F084507B8004008463DB9004408D3
:101A2800BB004308BA00983195208C31200041084A
:101A38003D07B60042083E3DB7004008B9003F08E0
:101A4800B8004408BB004308BA00983195208C318F
:101A580020004109C5004209C600C50A0319C60A83
:101A68003D084507B6003E08463DB7004008B900A6
:101A78003F08B8004408BB004308BA0098319520D5
:101A88008C3120005008803AC5005208803A45023F
:101A9800031D502D51084F02031808002000CE1BCB
:101AA800612DFF30D107FF30D23D0230CB07003027
:101AB800CC3D4B08CD074C08CE3D0130CF07003058
:101AC800D03D0230C9070030CA3D4908CD074A0851
:101AD800CE3D4F083D07B60050083E3DB7005108BF
:101AE8003F07B8005208403DB9004408BB0043080E
:101AF800BA00983195208C3120004F09C500500953
:101B0800C600C50A0319C60A3D084507B6003E08BF
:101B1800463DB70051083F07B8005208403DB9009C
:101B28004408BB004308BA00983195208C31200046
:101B38004F083D07B60050083E3DB7005109C500A3
:101B48005209C600C50A0319C60A3F084507B80066
:101B58004008463DB9004408BB004308BA00983124
:101B680095208C3120004F09C5005009C600C50AD0
:101B78000319C60A3D084507B6003E08463DB700AA
:101B88005109C7005209C800C70A0319C80A3F0803
:101B98004707B8004008483DB9004408BB0043085F
:101BA800BA00983195208C31200051083D07B600C5
:101BB80052083E3DB7004F083F07B8005008403D67
:101BC800B9004408BB004308BA00983195208C310D
:101BD80020005109C5005209C600C50A0319C60AE2
:101BE8003D084507B6003E08463DB7004F083F0789
:101BF800B8005008403DB9004408BB004308BA008B
:101C0800983195208C31200051083D07B6005208C4
:101C18003E3DB7004F09C5005009C600C50A031963
:101C2800C60A3F084507B8004008463DB9004408C1
:101C3800BB004308BA00983195208C312000510927
:101C4800C5005209C600C50A0319C60A3D0845075A
:101C5800B6003E08463DB7004F09C7005009C80006
:101C6800C70A0319C80A3F084707B8004008483D93
:101C7800B9003E2D21003708803AC0006908803A33
:101C88004002031D492E6808360203180800210087
:101C98003908803AC00022002908803A2100400211
:101CA800031D5A2E220028082100380203180800B4
:101CB80021003F08C000C10140082000A000210009
:101CC80041082000A1000630A2000030A300A63180
:101CD80050268E3121003608200020072100C2003E
:101CE80037082000213D2100C3004208FF3EC40000
:101CF800FF30433DC500C51B08003F08C000C101B7
:101D0800C035C10DC035C10DC035C10D38084007FB
:101D1800C2003908413DC300FF3042074308031899
:101D2800430AFF3E891B0800CD01CD014D08803ACA
:101D38007A3E0318080005304D06031DA52EC7017D
:101D4800D02E4D08C000C101C01BC1033A08C20013
:101D5800C30142082000A000210043082000A10080
:101D68000530A2000030A300A63150268E31210094
:101D78004008200020072100C40041082000213D20
:101D88002100C500AF30440784008730453D8500F9
:101D98000008C6004608C700CC01CC014C08803AB0
:101DA800783E0318FB2F471C5E2F3F03031D052FAA
:101DB8004D08C000C101C01BC10336084007200000
:101DC800B60021003708413D2000B70021004C082B
:101DD800C200C301C21BC303380842072000B80071
:101DE80021003908433D2000B90021003C082000AB
:101DF800BB0021003B082000BA00983195208E31A5
:101E0800EF2F21004D082000A000A101A01BA10375
:101E180021003F08C000C10140082000A2002100A5
:101E280041082000A300A63150268E312100360833
:101E3800200020072100C80037082000213D21008C
:101E4800C9004C082000A000A101A01BA10321008B
:101E58003F08C000C10140082000A200210041083D
:101E68002000A300A63150268E312100380820001A
:101E780020072100CA0039082000213D2100CB009D
:101E88004908AD004808AC004B08AF004A08AE004E
:101E98003F08C000C1014008B0004108B1003F0838
:101EA800C200C3014208B2004308B3003C08B500B1
:101EB8003B08EB2F21003C083E06031D652F3B081D
:101EC8003D060319EF2F3F03031D932F4D08C00054
:101ED800C101C01BC103360840072000B60021001D
:101EE8003708413D2000B70021004C08C200C3015B
:101EF800C21BC303380842072000B8002100390874
:101F0800433D2000B90021003E082000BB0021000D
:101F18003D082000BA00983195208E31EF2F21001E
:101F28004D082000A000A101A01BA10321003F082B
:101F3800C000C10140082000A20021004108200083
:101F4800A300A63150268E31210036082000200734
:101F58002100C80037082000213D2100C9004C0895
:101F68002000A000A101A01BA10321003F08C00080
:101F7800C10140082000A200210041082000A30060
:101F8800A63150268E312100380820002007210074
:101F9800CA0039082000213D2100CB004908AD00C6
:101FA8004808AC004B08AF004A08AE003F08C00024
:101FB800C1014008B0004108B1003F08C200C30198
:101FC8004208B2004308B3003E08B5003D08B4001B
:101FD8009C3112248E3103102100C70C0130C0003F
:101FE8004008CC074C08803A783E031CD72E0130B5
:101FF800C0004008CD079A2E2000111108002000CB
:10200800A71B08002708803AAC0080302C02031D6B
:102018000F2880302602031808002000A91B08009A
:102028002908803AAC0080302C02031D1D2840305E
:10203800280203180800D62801302000AC00280820
:102048000739890A2828AC35890B27282C08AD00C0
:102058002908AF002808AE002F0DAF0CAE0C2F0DCD
:10206800AF0CAE0C2F0DAF0CAE0C2E08A0002F0835
:10207800A1008130A2000030A300A6315026200024
:102088002608013EB0000030273DB100E830B2001C
:102098002330B30030083207B4003108333DB500AF
:1020A8002008340786002108353D87002D08810463
:1020B80008000130AC0028080739890A6428AC35C3
:1020C800890B63282C08FF3AAD002908AF002808BF
:1020D800AE002F0DAF0CAE0C2F0DAF0CAE0C2F0DAC
:1020E800AF0CAE0C2E08A0002F08A1008130A20072
:1020F8000030A300A631502620002608013EB0007B
:102108000030273DB100E830B2002330B30030087A
:102118003207B4003108333DB50020083407860083
:102128002108353D87002D08810508000130AC00E5
:1021380028080739890AA128AC35890BA0282C085A
:10214800AD002908AF002808AE002F0DAF0CAE0C6B
:102158002F0DAF0CAE0C2F0DAF0CAE0C2E08A0003F
:102168002F08A1008130A2000030A300A63150261C
:1021780020002608013EB0000030273DB100E830BD
:10218800B2002330B30030083207B4003108333DC1
:10219800B5002008340786002108353D87002D0842
:1021A8008106080020002B08003A0319DC28E728DC
:1021B8002A08003A03195D28013A03192028033A2E
:1021C80003199A28E728080020005A085606031D14
:1021D800EF28590855060319F9285C085806031D05
:1021E800F7285B085706031D10295608C90055082B
:1021F800C8005808CB005708CA005A08CD0059082B
:10220800CC005C08CF005B08CE005E08D1005D08FA
:10221800D0009D31B125080020005509DF0056097E
:10222800E000DF0A0319E00A59085F07A0005A080E
:10223800603DA100A531C925903120002008E100AA
:102248002108E2005709E3005809E400E30A0319EA
:10225800E40A5B086307A0005C08643DA100A5319F
:10226800C925903120006208803AE5002108803AAB
:102278006502031D41292008610203184529013020
:10228800462900302000E600E70166082100A60084
:10229800200067082100A7002608270403197D29C4
:1022A800200056082100AB00200055082100AA0094
:1022B80020005808D6005708D50021002B08200018
:1022C800D80021002A082000D7005A082100AB00B6
:1022D800200059082100AA0020005C08DA005B08E9
:1022E800D90021002B082000DC0021002A0820004A
:1022F800DB0020005A08803ADF005608803A5F0267
:10230800031D8829550859020318B32920005608C7
:102318002100AB00200055082100AA0020005A081F
:10232800D6005908D50021002B082000DA0021002A
:102338002A082000D90058082100AB0020005708BF
:102348002100AA0020005C08D8005B08D700210003
:102358002B082000DC0021002A082000DB002000D8
:102368005509DF005609E000DF0A0319E00A590899
:102378005F072100A80020005A08603D2100A9003D
:1023880020005709DF005809E000DF0A0319E00AB6
:102398005B085F07A0005C08603DA100A531C92566
:1023A8009031200021082100A100200020082100F0
:1023B800A00002302000A2000030A300210029085C
:1023C8002000A500210028082000A4009831D4206E
:1023D8009031200023082100A500200022082100B8
:1023E800A40020005808803ADF005C08803A5F02A9
:1023F800031D002A5B0857020318072A0130210031
:10240800A20000300B2AFF302100A200FF30A300F9
:1024180020005A08803ADF005608803A5F02031D00
:10242800172A55085902031C08002100260827040A
:102438000319272A20005808B7005708B60056087D
:10244800B90055082F2A20005608B7005508B600CD
:102458005808B9005708B8005E08BB005D08BA0004
:1024680098319520903121002008A4022108A53B2D
:10247800A51F4A2A22082000D70721002308200088
:10248800D83D21002808A4072908A53D01302000CF
:10249800D5070030D63D0C2A20002B082706031D3F
:1024A800572A2A082606031D6D2B2908B10028087B
:1024B800B000310DB10CB00C310DB10CB00C310DB8
:1024C800B10CB00C3008A0003108A1008130A20086
:1024D8000030A300A6315026923120002608013E84
:1024E800B2000030273DB300E830B4002330B50017
:1024F80032083407B6003308353DB70020083607E0
:10250800BD002108373DBE002D08B1002C08B000E1
:10251800310DB10CB00C310DB10CB00C310DB10C4A
:10252800B00C3008A0003108A1008130A2000030B2
:10253800A300A6315026923120002A08013EB2009D
:1025480000302B3DB300E830B4002330B50032082A
:102558003407B6003308353DB70020083607BF00FA
:102568002108373DC0003E08C7003D08C60047089F
:102578004002031DC12A46083F02031C08003E080A
:102588004706031DC92A3D084606031DF62A2808E2
:102598000739B0003008C1002803FF3A41072C076B
:1025A800B0003008BC0007303C02031CDF2A0730AB
:1025B800B0003008BC000130B0004103FF3A3C07CE
:1025C800013E890AE82AB035890BE72A3008FF3E20
:1025D800B100410AF02AB135890BEF2A3108B2005F
:1025E80032080B2B40084706031DFC2A3F08460605
:1025F800031D0C2B0130B0002C080739890A052B64
:10260800B035890B042B3008FF3EB1003108C300F8
:102618003E084706031D122B3D0846060319312BB9
:1026280040084706031D1A2B3F0846060319312B9D
:10263800582B4308B0004608860047088700300832
:102648008104682B4309B0004608860047088700C4
:1026580030088105682B4308502B2F08003A0319CE
:10266800362B682B2E08003A0319262B013A03193A
:102678001D2B033A03192F2B682B682B460886005D
:1026880047088700FF308100682B46088600470806
:1026980087008101682BFF30B00046088600470894
:1026A800870030088106682B2F08003A03195D2B34
:1026B800682B2E08003A0319492B013A0319422BBB
:1026C800033A03194F2B682B8130C6070030C73DEA
:1026D800BB2A2908B1002808B000310DB10CB00C94
:1026E800310DB10CB00C310DB10CB00C3008A0009C
:1026F8003108A1008130A2000030A300A631502685
:10270800923120002608013EB2000030273DB30078
:10271800E830B4002330B50032083407B600330877
:10272800353DB70020083607BA002108373DBB0001
:102738002609B0002709B100B00A0319B10A300808
:102748003A07B20031083B3DB3002A083207B80007
:102758002B08333DB9000130B00028080739890A31
:10276800B62BB035890BB52B3008B1003108C20043
:102778003B08C5003A08C400DF2B4208B0004408F3
:1027880086004508870030088104DB2B4209B00029
:10279800440886004508870030088105DB2B42087D
:1027A800B0004408860045088700300881060130DB
:1027B800C4070030C53D45083902031DE52B440810
:1027C8003802031C08002F08003A0319EC2BDB2BF6
:1027D8002E08003A0319CA2B013A0319C12B033AF0
:1027E8000319D32BDB2BDB2B4034003400340034AB
:1027F8000034003400340034003400340034003431
:102808000034003400340034003400340034003420
:102818000034003400340034003400340034003410
:102828000034003400340034003400340034003400
:1028380000340034003400340034003400340034F0
:1028480000340034003400340034003400340034E0
:1028580000340034003400340034003400340034D0
:1028680000340034003400340034003400340034C0
:1028780000340034003400340034003400340034B0
:1028880000340034003400340034003400340034A0
:102898000034003400340034003400340034003490
:1028A8000034003400340034003400340034003480
:1028B8000034003400340034003400340034003470
:1028C8000034003400340034003400340034003460
:1028D8000034003400340034003400340034003450
:1028E8000034003400340034003440340034003400
:1028F8000034003400340034003400340034003430
:10290800003400340034003400340034003400341F
:10291800003400340034003400340034003400340F
:1029280000340034003400340034003400340034FF
:1029380000340034003400340034003400340034EF
:1029480000340034003400340034003400340034DF
:1029580000340034003400340034003400340034CF
:1029680000340034003400340034003400340034BF
:1029780000340034003400340034003400340034AF
:10298800003400340034003400340034003400349F
:10299800003400340034003400340034003400348F
:1029A800003400340034003400340034003400347F
:1029B800003400340034003400340034003400346F
:1029C800003400340034003400340034003400345F
:1029D800003400340034003400340034003400344F
:1029E80000340034003400340034003440340034FF
:1029F800003400340034003400340034003400342F
:102A0800003400340034003400340034003400341E
:102A1800003400340034003400340034003400340E
:102A280000340034003400340034003400340034FE
:102A380000340034003400340034003400340034EE
:102A480000340034003400340034003400340034DE
:102A580000340034003400340034003400340034CE
:102A680000340034003400340034003400340034BE
:102A780000340034003400340034003400340034AE
:102A8800003400340034003400340034003400349E
:102A9800003400340034003400340034003400348E
:102AA800003400340034003400340034003400347E
:102AB800003400340034003400340034003400346E
:102AC800003400340034003400340034003400345E
:102AD800003400340034003400340034003400344E
:102AE80000340034003400340034003400344034FE
:102AF800003400340034003400340034003400342E
:102B0800003400340034003400340034003400341D
:102B1800003400340034003400340034003400340D
:102B280000340034003400340034003400340034FD
:102B380000340034003400340034003400340034ED
:102B480000340034003400340034003400340034DD
:102B580000340034003400340034003400340034CD
:102B680000340034003400340034003400340034BD
:102B780000340034003400340034003400340034AD
:102B8800003400340034003400340034003400349D
:102B9800003400340034003400340034003400348D
:102BA800003400340034003400340034003400347D
:102BB800003400340034003400340034003400346D
:102BC800003400340034003400340034003400345D
:102BD800003400340034003400340034003400344D
:102BE800003400340034003400340034003400343D
:102BF80040340034003400340034003400340034ED
:102C0800003400340034003400340034003400341C
:102C1800003400340034003400340034003400340C
:102C280000340034003400340034003400340034FC
:102C380000340034003400340034003400340034EC
:102C480000340034003400340034003400340034DC
:102C580000340034003400340034003400340034CC
:102C680000340034003400340034003400340034BC
:102C780000340034003400340034003400340034AC
:102C8800003400340034003400340034003400349C
:102C9800003400340034003400340034003400348C
:102CA800003400340034003400340034003400347C
:102CB800003400340034003400340034003400346C
:102CC800003400340034003400340034003400345C
:102CD800003400340034003400340034003400344C
:102CE800003400340034003400340034003400343C
:102CF80000344034003400340034003400340034EC
:102D0800003400340034003400340034003400341B
:102D1800003400340034003400340034003400340B
:102D280000340034003400340034003400340034FB
:102D380000340034003400340034003400340034EB
:102D480000340034003400340034003400340034DB
:102D580000340034003400340034003400340034CB
:102D680000340034003400340034003400340034BB
:102D780000340034003400340034003400340034AB
:102D8800003400340034003400340034003400349B
:102D9800003400340034003400340034003400348B
:102DA800003400340034003400340034003400347B
:102DB800003400340034003400340034003400346B
:102DC800003400340034003400340034003400345B
:102DD800003400340034003400340034003400344B
:102DE800003400340034003400340034003400343B
:102DF80000340034403400340034003400340034EB
:102E0800003400340034003400340034003400341A
:102E1800003400340034003400340034003400340A
:102E280000340034003400340034003400340034FA
:102E380000340034003400340034003400340034EA
:102E480000340034003400340034003400340034DA
:102E580000340034003400340034003400340034CA
:102E680000340034003400340034003400340034BA
:102E780000340034003400340034003400340034AA
:102E8800003400340034003400340034003400349A
:102E9800003400340034003400340034003400348A
:102EA800003400340034003400340034003400347A
:102EB800003400340034003400340034003400346A
:102EC800003400340034003400340034003400345A
:102ED800003400340034003400340034003400344A
:102EE800003400340034003400340034003400343A
:102EF80000340034003440340034003400340034EA
:102F08000034003400340034003400340034003419
:102F18000034003400340034003400340034003409
:102F280000340034003400340034003400340034F9
:102F380000340034003400340034003400340034E9
:102F480000340034003400340034003400340034D9
:102F580000340034003400340034003400340034C9
:102F680000340034003400340034003400340034B9
:102F780000340034003400340034003400340034A9
:102F88000034003400340034003400340034003499
:102F98000034003400340034003400340034003489
:102FA8000034003400340034003400340034003479
:102FB8000034003400340034003400340034003469
:102FC8000034003400340034003400340034003459
:102FD8000034003400340034003400340034003449
:102FE8000034003400340034003400340034003439
:102FF800003400340034003402302000B3003308B9
:10300800B700B501B601911907283108A9003008A1
:10301800A8003208B3003308AA003C30AB000030E7
:10302800AC003730B4003408AD00A73155279831CB
:10303800200037030319252802303706031D2528E9
:10304800110802303706031D08000130B5070030AB
:10305800B63D370803190800252802302000B300C0
:103068003308B700B501B601911938283108A9000D
:103078003008A8003208B3003308AA003C30AB007F
:103088000030AC003730B4003408AD00A731552704
:103098009831200037030319562802303706031DDC
:1030A8005628110802303706031D08000130B507FD
:1030B8000030B63D37080319080056282000A10043
:1030C80021080339A0002008FA00862820006F088C
:1030D8002100E90020006E082100E800790822009C
:1030E800A9007808A800080079082100E9007808F4
:1030F800E80020006F082200A90020006E082200C6
:10310800A80008007A08003A03196A28013A031946
:103118007828033A03196A28013A03197828942869
:1031280008002000B71B08003708803ABC002100BF
:103138006908803A20003C02031DA628210068087F
:1031480020003602031808002000B91B08003908BF
:10315800803ABC0022002908803A20003C02031D66
:10316800B92822002808200038020318080038303F
:103178002000BC003C08A00036309A31C3229831A8
:1031880020003708A7003608A6003908A900380823
:10319800A8003B08AB003A08AA00903103200800B9
:1031A8002000A801A31FDF28A209A309A20A031966
:1031B800A30AA801A80AA51FEA28A409A509A40A20
:1031C8000319A50A0130A6002608A806A901AA0124
:1031D8002208230403191929A701A70AA31BFE28FB
:1031E8000130A235A30D890BF5280130A600260869
:1031F800A707F2280130A935AA0D890BFF28230853
:103208002502031D092922082402031C102922086B
:10321800A4022308A53B29140130A336A20C890B6C
:1032280011290130A702031DFE28280803192129A6
:10323800A909AA09A90A0319AA0A2A08A300290898
:10324800A20008002000A3002100651868290230A8
:103258002000A2002108860087012208810020089A
:10326800A2002100630A860001308700200022089E
:1032780081002308A200210063088600013087002E
:1032880020002208810021006308023E86000130E8
:10329800870020002108C03F0030C13F0430A20051
:1032A80022082100E3076308483A031D61294430D6
:1032B8002000A20022082100E300E510640863064C
:1032C800031D6E2965146E292000210886008701D8
:1032D8008101810A20002108860087010230010649
:1032E800031D080021006F08031D08002000911528
:1032F80076292000AF0108302F0203180800AE011C
:10330800AE0A81302E020318B4292E08A600A701A0
:103318002F08A800A9012808A0002908A1008130C9
:10332800A2000030A300A63150269931E8302000D1
:10333800AA002330AB0020082A07AC0021082B3D47
:10334800AD0026082C07860027082D3D870081013F
:103358000130A6002608AE0781302E02031C8929F9
:103368002F08A600A7012608A0002708A100813081
:10337800A2000030A300A63150269931E830200081
:10338800A8002330A90020082807AA002108293D01
:10339800AB002A0886002B088700403081000130E6
:1033A800A6002608AF077F2966308600013087000F
:1033B8003E3084000030850005302000B80016003B
:1033C8001A00B80BE329C3010830430203180800A8
:1033D8004308B038B8003808C2003E30B0000030AA
:1033E800B1000530B8003808B20098310020993192
:1033F80020004308B800B9013808A0003908A10026
:103408008130A2000030A300A63150269931E8305F
:103418002000BA002330BB0020083A07BC0021086E
:103428003B3DBD003C0886003D08870040308100D8
:103438004308B800B9013808A0003908A100813054
:10344800A2000030A300A63150269931E8302000B0
:10345800BA002330BB0020083A07B00021083B3DE2
:10346800B1008130BC003C08B2009831312099315C
:1034780001302000B8003808C307E82921002D08CA
:103488002000D60021002C082000D50021002F089C
:103498002000D80021002E082000D7002100310884
:1034A8002000DA00210030082000D900210033086C
:1034B8002000DC00210032082000DB002100390850
:1034C8002000DE00210038082000DD009031E820CF
:1034D8009A31210031082000D60021003008200050
:1034E800D500210033082000D80021003208200030
:1034F800D700210035082000DA0021003408200018
:10350800D900210037082000DC00210036082000FF
:10351800DB00210039082000DE00210038082000E7
:10352800DD009031E8209A31210035082000D600CE
:10353800210034082000D500210037082000D800D9
:10354800210036082000D70021002D082000DA00CD
:1035580021002C082000D90021002F082000DC00C1
:1035680021002E082000DB00210039082000DE00A1
:10357800210038082000DD009031E82008002000F4
:10358800A900200886008701403FA700413FA80006
:10359800562B290886008701200884008501403FB2
:1035A800803F413F813F2708013EA1000030283D70
:1035B800A200A109A209A10A0319A20A6E082107FB
:1035C800A3006F08223DA40029088600870123086C
:1035D800C03F2408C13F0800290886008701403FF2
:1035E800A100413FA2002108013EA3000030223D76
:1035F800A400A309A409A30A0319A40A6E082307AF
:10360800A5006F08243DA600290886008701250823
:10361800C03F2608C13F200886008701403FA1001F
:10362800413FA2002108013EA3000030223DA40032
:10363800A309A409A30A0319A40A78082307A50063
:103648007908243DA6002008860087012508C03F88
:103658002608C13F0800290886008701403FA100CD
:10366800413FA2002108013EA3000030223DA400F2
:10367800A309A409A30A0319A40A78082307A50023
:103688007908243DA6002008860087012508C03F48
:103698002608C13F2908860087012708C03F280857
:1036A800C13F08007A08013A0319CD2A033A0319E1
:1036B800F02A013A03192F2B612B08002000ED0096
:1036C8000A306D06031D7C2B21006A08CE00CF014D
:1036D800CE35CF0DCE35CF0DCE35CF0D4E082200CD
:1036E800A40721004F082200A53DA601A701080054
:1036F8000D3020006D06031908002200270821005C
:10370800B700220026082100B60022002508210063
:10371800B900220024082100B80020006D0821000B
:10372800CE004E08BA00220023082100BC00220067
:1037380022082100BB00220021082100BE0022002F
:1037480020082100BD006A08CF004F08BF008E3155
:103758003E269B3121006A08CE00CF014E0820008A
:10376800A00021004F082000A1000630A200003070
:10377800A300A63150269B31200020082200A6076E
:10378800200021082200A73D2E0803190800210067
:103798006A08CE00CF014E082000A00021004F0883
:1037A8002000A1000630A2000030A300A631502658
:1037B8009B31200020092100D00020002109210090
:1037C800D100D00A0319D10A68085007D200690845
:1037D800513DD3005308803AD40022002708803A8C
:1037E80021005402031DFC2B22002608210052024E
:1037F8000318080021006A08CE00CF01CE35CF0D8E
:10380800CE35CF0DCE35CF0D4E082200A4072100AE
:103818004F082200A53DA601A70108002000EB01E2
:10382800EC0121003108803A2000E800210033082B
:10383800803A20006802031D242C2100320830023F
:103848000318762C21002D082000EC0021002C08FC
:103858002000EB00210030082C072000E8002100A0
:1038680031082D3D2000E9006C08803AEA0069081B
:10387800803A6A02031D422C68086B02031808008C
:1038880020006C08D6006B08D50021002F08200006
:10389800D80021002E082000D7006C08DA006B0839
:1038A800D900210032082E072000E8002100330843
:1038B8002F3D2000E9006808FF3EDB00FF30693D2E
:1038C800DC00210035082000DE002100340820003B
:1038D800DD009031E8209C3101302000EB070030FA
:1038E800EC3D2E2C21002F082000EC0021002E0892
:1038F8002000EB00210032082E072000E8002100FC
:1039080033082F3D2000E9006C08803AEA00690876
:10391800803A6A02031D922C68086B02031808009B
:1039280021002D082000D60021002C082000D500F9
:103938006C08D8006B08D700210030082C0720003D
:10394800E800210031082D3D2000E9006808FF3E0D
:10395800D900FF30693DDA006C08DC006B08DB0039
:10396800210035082000DE00210034082000DD0099
:103978009031E8209C3101302000EB070030EC3D0D
:103988007E2C21002D082000D60021002C082000C4
:10399800D50021002F082000D80021002E08200083
:1039A800D700210030082C072000E800210031084A
:1039B8002D3D2000E9006808FF3ED900FF30693D31
:1039C800DA0021002F082000DC0021002E0820004A
:1039D800DB00210035082000DE002100340820002B
:1039E800DD009031E8209C3121002D082000D60010
:1039F80021002C082000D500210032082E072000C5
:103A0800E800210033082F3D2000E9006808FF3E48
:103A1800D700FF30693DD800210030082C0720006E
:103A2800EA00210031082D3D2000EB006A08FF3E26
:103A3800D900FF306B3DDA00210032082E07200044
:103A4800EC00210033082F3D2000ED006C08FF3EFC
:103A5800DB00FF306D3DDC00210035082000DE0072
:103A6800210034082000DD009031E8209C3121003D
:103A78002D082000D60021002C082000D5002100A8
:103A88002F082000D80021002E082000D700210090
:103A98002D082000DA0021002C082000D900210080
:103AA80032082E072000E800210033082F3D2000AF
:103AB800E9006808FF3EDB00FF30693DDC002100BB
:103AC80035082000DE00210034082000DD00903198
:103AD800E8209C31210030082C072000E800210054
:103AE80031082D3D2000E9006808FF3ED500FF3071
:103AF800693DD60021002F082000D80021002E089B
:103B08002000D700210030082C072000EA002100FF
:103B180031082D3D2000EB006A08FF3ED900FF3038
:103B28006B3DDA00210032082E072000EC0021004E
:103B380033082F3D2000ED006C08FF3EDB00FF300E
:103B48006D3DDC00210035082000DE00210034082E
:103B58002000DD009031E820080020004D084906CB
:103B6800031DB82D4C0848060319C22D4F084B06F3
:103B7800031DC02D4E084A06031D08007A030319C9
:103B8800C92D03307A06031D032EC91B08004908F6
:103B9800803AD2007908803A5202031DD52D780860
:103BA8004802031808002000CD1B08004D08803A81
:103BB800D2007908803A5202031DE42D78084C029D
:103BC800031808002000CB1B08004B08803AD200DD
:103BD8006F08803A5202031DF32D6E084A0203183B
:103BE80008002000CF1B08004F08803AD2006F0859
:103BF800803A5202031D3C2E6E084E023C2ECB1B0F
:103C080008004B08803AD2007908803A5202031D16
:103C18000F2E78084A02031808002000CF1B08005E
:103C28004F08803AD2007908803A5202031D1E2EAE
:103C380078084E02031808002000C91B080049082C
:103C4800803AD2006F08803A5202031D2D2E6E086A
:103C58004802031808002000CD1B08004D08803AD0
:103C6800D2006F08803A5202031D3C2E6E084C02A7
:103C7800031808004A302000D2005208A00048303B
:103C88009A31C3229D314E302000D2005208A00044
:103C98004C309A31C3229D3120004D084906031D3E
:103CA800572E4C084806031D652E4F08803AD2004F
:103CB8004B08803A5202031D632E4A084E02031C29
:103CC8007A2E20004F084B06031D6C2E4E084A061C
:103CD800031D932E4D08803AD2004908803A5202BB
:103CE800031D782E48084C020318932E200049081B
:103CF800D4004808D3004D08C9004C08C80054082F
:103D0800CD005308CC004B08D4004A08D3004F0814
:103D1800CB004E08CA005408CF005308CE0020003C
:103D28004908A7004808A6004B08A9004A08A800A7
:103D38004D08AB004C08AA004F08AD004E08AC0077
:103D48005108AF005008AE00923150220800200000
:103D580091112400951FF42F95132100EF016D0890
:103D6800023E860001308700403FF300413FF400E7
:103D7800730886007408870001308100ED0108008F
:103D8800E51808006408F3007308ED00640886006D
:103D9800013087000108F3007308EE00640886000C
:103DA800013087000130413FFB000430F300730805
:103DB800E4076408483A031DE52E4430F30073080D
:103DC800E4006510640863060319E514240016145A
:103DD8000230F30073082100EF0008002400961455
:103DE8000230F30073082100EF0008002400161FBA
:103DF800062F0130F30073082100E7070430A631CD
:103E0800A62608007D08F4007C08F300F436F30CBD
:103E18007308240091007C1C172F0B30F3007308E3
:103E28002100EF0008000330F30073082100EF00C1
:103E380008002400161F292F0130F3007308210001
:103E4800E7070430A631A626080096147D08F4007A
:103E58007C08F3007408F300F40106307305F500DC
:103E680000307405F600F0307504FC00003076046C
:103E7800FD007C142100EB01EB0A0230F30073080B
:103E8800EF0008006B030319632F7B0886000130DD
:103E98008700403FFC00413FFD007B08033E860051
:103EA80001308700403F2200AC00413FAD007B0855
:103EB8008600013087000130423F2100EC007C0879
:103EC800240091007C1C6E2F0530F300730821003C
:103ED800EF0008000330F30073082100EF0008002A
:103EE8002400161F822F0130F30073082100E70712
:103EF800240016130530A631A6260800013021003B
:103F0800EC026C0A031D9C2F0530F3007308FB07B5
:103F18000130EE02031D942F0030A631A6260800BA
:103F2800240096140230F30073082100EF00080003
:103F380022002C0884002D08850000082400910028
:103F480001302200AC070030AD3D08002400161FE8
:103F5800B82F0130F30073082100E7070430A631B9
:103F6800A62624001613080096150830F3007308D7
:103F78002100EF0008000830F3007308EF00240068
:103F88009615080022002C0886002D0887002400BA
:103F98001108810001302200AC070030AD3D01302E
:103FA8002100EC020319E02F240096120630F300DA
:103FB80073082100EF00E42F24009616A531D825B8
:103FC8002400161608000030A631A6260800013085
:103FD800F30073082100E7070630A631A62608007B
:103FE80021006F0884000C3004020318EB2FA03165
:103FF8000435003E820008009E31C42E9E31F22E08
:104008009F31462F9F31742F9F31E72F9F31AA2F61
:104018009F31BF2F9F31E72F9F31C62F9F31EB2F45
:084028009E31FA2E9F311D2F7D
:104ABE0016302100970008003200910192019301F7
:104ACE009401950196010800220029082000A100FA
:104ADE00220028082000A0000800210069082000FC
:104AEE00A100210068082000A0000800013032005B
:104AFE0099009B019D0106309F0020309E001C18DE
:104B0E000800862D21005C08D6005B08D500A73171
:104B1E00D127A5310A309B31622308006400800141
:104B2E0001310130FE020030FF3B7F087E04031985
:104B3E000034962DFE0012001E000130FE020030E1
:104B4E00FF3B7F087E0403190034A22D20002108AC
:104B5E002200A100200020082200A0002108A300AE
:104B6E002008A2000800A5316325A531A731092729
:104B7E00A531A5317D25A531A5315F25A531A631FC
:104B8E006C2608002000A11F08002009A2002109A0
:104B9E00A300A20A0319A30A2208A0002308A10059
:104BAE0008000530F0007008FB0701302100EE020E
:104BBE00031DE62D0430F0007008EF000800EF0131
:104BCE00EF0A0800200021082200A700200020087C
:104BDE002200A600200023082200A50020002208A3
:104BEE002200A400080022006F082000BA00220054
:104BFE006E082000B9003930B0000030B10002302C
:104C0E00B8003808B2009831002008000034003493
:104C1E0000340034003400340034FF342F340034B8
:104C2E00213400347F34B034003481340034003405
:104C3E002E342000A4002408031D292E0130A200CA
:104C4E0000302F2E2408A000A1012008A200210868
:104C5E00A3002208A00020082100EA00080000346A
:104C6E00AE34D5348034A8343F34D3340034403499
:104C7E008D34143420340034A134C834DA34123470
:104C8E008134CF34D934F134DB344034A434A634F7
:104C9E00AF342000A401A501201C592E2208A40720
:104CAE002308A53D0130A235A30D890B5A2E0130E4
:104CBE00A136A00C890B5F2E20082104031D532E54
:104CCE002508A1002408A000080044302000A00000
:104CDE0020082100E40044302000A000200821001C
:104CEE00E300E5146510E7012400940128309500D7
:104CFE009701093092002000911111112100911598
:104D0E00111508002000B90022006B082000BA001F
:104D1E0022006C082000BB0022006D082000BC00A1
:104D2E003908B8003808BC003A30B0000030B10085
:104D3E000330B8003808B200983100200800F200A5
:104D4E002400161521006D08023E860001308700F2
:104D5E00160001040319C22E6D08023E86000130B2
:104D6E008700403FF000413FF10070088600710857
:104D7E00870072088100EF0108002000B9002200B0
:104D8E002B082000BD0022002A082000BC00390894
:104D9E00031DD32EA630D42EA730BA000030BB0090
:104DAE003A08B8003808BD003C30B0000030B10001
:104DBE000230B8003808B2009831002008002000F8
:104DCE00A7002408A6002308A500A535A60D2708D0
:104DDE008600013087002508C03F2608C13F220803
:104DEE00A5002708023E86000130870025088100B5
:104DFE002708033E8600013087002008C03F2108A7
:104E0E00C13F080022008C018E01373021008C003A
:104E1E003F308E000F3023008E0037308C00240080
:104E2E008C018E0125008C018E013C002008E0399A
:104E3E001438A0002108E0391538A1003D002408DF
:104E4E00E0391838A4002508E0391938A500080003
:104E5E0080302000A0000030A1004030A2000030C1
:104E6E00A300A7317D27A731A0308600013087002F
:104E7E0039308400003085001A302000B80016004A
:104E8E001A00B80B462F3930B0000030B1001A307E
:104E9E00B8003808B20098310020080021006518CB
:104EAE00762F20002908A1002808A0002A08AE00AD
:104EBE002E08A2002C08A4002B08A3003F30A63118
:104ECE00E626A7313F302000AE002E08A0002D08A8
:104EDE00AF002F08A10001309931262108002000D3
:104EEE002D08860087018101810A08002000210813
:104EFE00EF002008EE002308F9002208F8006F08E2
:104F0E002100E90020006E082100E8007908220047
:104F1E00A9007808A800FA01A601A701A401A5011D
:104F2E002100EA01EA0AFF302200A000FF30A100B2
:104F3E002108A3002008A200AE01AE0A080020003E
:104F4E00C5005D308600013087003C3084000030A3
:104F5E0085000930BB0016001A00BB0BB22F3908B2
:104F6E00BB003B08BD004508BB003B08BF003A082C
:104F7E00BB003B08C0003808BB003B08C1003C30FA
:104F8E00B0000030B1000930BB003B08B2009831D0
:104F9E0000200800210056082000A100210055081D
:104FAE002000A0008C31AA24A73120002108210066
:104FBE00D800200020082100D700D901DA01D9013C
:104FCE00DA0158085A02031DEE2F5708590203182A
:104FDE00080055085907840056085A3D85000008F8
:104FEE009B316223A73101302100D9070030DA3D11
:104FFE00E82F0034AE340034A8343F340034D334B8
:10500E000034003440340034A0340034C034003452
:10501E00DA34123400348134FF340034A4340034D2
:10502E00A6340034D53480340034203410340034A7
:10503E002234003407340034213400347F340034F9
:10504E008D3414340034AF340034213400347F34C2
:10505E00743465347334743420346C3469346E347F
:10506E0065342034313420342E342E342E34003432
:10507E0032346E34643420346C3469346E346534B6
:10508E0020342E342E342E3400344034FF34073482
:10509E00FF3403340534093411342134733463344A
:0A50AE0072346F346C346C3400343B
:020000040001F9
:08000E008CFF33FFFFDFFFFF51
:00000001FF
